S01C0000506F7765724F424374776F7761792D506F7765722E7372656342
S11300000C942A000C9447000C9447000C9447006D
S11300100C9447000C9447000C9447000C94470040
S11300200C9447000C9447000C9447000C94470030
S11300300C9447000C9447000C9447000C94470020
S11300400C9447000C9447000C9447000C94C60091
S11300500C94470011241FBECFE5D8E0DEBFCDBF0E
S113006010E0A0E6B0E0ECEEF2E002C005900D92E4
S1130070A236B107D9F720E0A2E6B0E001C01D9294
S1130080AA36B207E1F70E9449000C9474010C945B
S11300900000CF93DF93CDB7DEB72F970FB6F89458
S11300A0DEBF0FBECDBF789489E389830E946201CD
S11300B080E20E94770061E0CE0108960E947D00F4
S11300C061E0CE0108960E94A00088850E9470011C
S11300D061E0CE0101960E947D002FEF8DE399E44B
S11300E0215080409040E1F700C00000E9CF82B980
S11300F084E086BF1092640008959C01909164008E
S11301009111FECF60936500662379F0F901A6E6AC
S1130110B0E0615070E06F5F7F4FC901860F971F99
S113012021912D93E817F907D9F71092630088EF0E
S11301308093600085EC86BF81E08093640008951D
S113014020916400222329F00000209164002111F1
S1130150FBCF2091630020FF15C0662371F0E6E613
S1130160F0E0A82FB92F6150862F90E089599F4F56
S113017021912D93E817F907D9F7809163008D7FBA
S11301808093630080916300817008951F920F92A1
S11301900FB60F9211248F939F93EF93FF9381B126
S11301A0803909F45EC090F4803709F448C038F40B
S11301B0882309F471C0803609F446C073C08038BE
S11301C009F44FC0883809F467C06CC0883A81F0DC
S11301D038F4883909F460C0803A09F458C062C020
S11301E0803CC9F0883C09F457C0883B19F05AC0D8
S11301F010926200E091620081E08E0F80936200B1
S1130200F0E0EA59FF4F808183B985EC86BF81E035
S1130210809364004EC090916200809165009813B1
S113022006C08091630081608093630003C081B144
S11302308093600085EC86BF109264003AC0809180
S11302406300846080936300809163008260809384
S113025063001092620085EC86BF81E080936400A5
S113026028C0E091620081E08E0F8093620083B128
S1130270F0E0EA59FF4F80838091630081608093AE
S1130280630085EC86BF81E08093640012C085EC36
S113029086BF109264000DC081B18093600080E934
S11302A086BF07C081B18093600085EC86BF109241
S11302B06400FF91EF919F918F910F900FBE0F906B
S11302C01F9018951BB81AB810BC599A8AB1886146
S11302D08AB980B58E6080BD87E689B910BC08955F
S10F02E05D9BFECF8CB90895F894FFCF0D
S10502ECF80014
S9030000FC
